{
  "transactions": [
    {
      "hash": "0xd63b3974c46896c86fd05a98ddb345e231dc8e6011c1925dc19cc7e0b254ffbb",
      "transactionType": "CREATE",
      "contractName": "Attacker",
      "contractAddress": "0x3287bce49fbaf4778f200176be11daf090b6a1fd",
      "function": null,
      "arguments": [
        "0x771F8f8FD270eD99db6a3B5B7e1d9f6417394249"
      ],
      "transaction": {
        "from": "0xce7e5bd5f20044368f6060f7c050e93a1fc80562",
        "gas": "0x564c1",
        "value": "0x0",
        "input": "0x60806040526000805460ff60a01b1916905534801561001d57600080fd5b5060405161042138038061042183398101604081905261003c91610061565b600080546001600160a01b0319166001600160a01b0392909216919091179055610091565b60006020828403121561007357600080fd5b81516001600160a01b038116811461008a57600080fd5b9392505050565b610381806100a06000396000f3fe608060405234801561001057600080fd5b506004361061002b5760003560e01c8063aabb75541461011a575b600054600160a01b900460ff16610118576000805460ff60a01b198116600160a01b17825560408051600481526024810182526020810180516001600160e01b0316634c228cc760e01b17905290516001600160a01b03909216916100909190610235565b6000604051808303816000865af19150503d80600081146100cd576040519150601f19603f3d011682016040523d82523d6000602084013e6100d2565b606091505b50509050806101165760405162461bcd60e51b815260206004820152600b60248201526a131bd8dac819985a5b195960aa1b60448201526064015b60405180910390fd5b505b005b610118610128366004610267565b600080546040516001600160a01b0390911690610149908490602401610318565b60408051601f198184030181529181526020820180516001600160e01b031663065ca49360e31b1790525161017e9190610235565b6000604051808303816000865af19150503d80600081146101bb576040519150601f19603f3d011682016040523d82523d6000602084013e6101c0565b606091505b50509050806102015760405162461bcd60e51b815260206004820152600d60248201526c105d1d1858dac819985a5b1959609a1b604482015260640161010d565b5050565b60005b83811015610220578181015183820152602001610208565b8381111561022f576000848401525b50505050565b60008251610247818460208701610205565b9190910192915050565b634e487b7160e01b600052604160045260246000fd5b60006020828403121561027957600080fd5b813567ffffffffffffffff8082111561029157600080fd5b818401915084601f8301126102a557600080fd5b8135818111156102b7576102b7610251565b604051601f8201601f19908116603f011681019083821181831017156102df576102df610251565b816040528281528760208487010111156102f857600080fd5b826020860160208301376000928101602001929092525095945050505050565b6020815260008251806020840152610337816040850160208701610205565b601f01601f1916919091016040019291505056fea2646970667358221220fcb0498995d3804c0a0412496e59d484cffe3506472e3e8654af367335e1c42e64736f6c634300080d0033000000000000000000000000771f8f8fd270ed99db6a3b5b7e1d9f6417394249",
        "nonce": "0x26",
        "chainId": "0xaa36a7"
      },
      "additionalContracts": [],
      "isFixedGasLimit": false
    },
    {
      "hash": "0xf0580b29c94a884a4cc3885961b7d72030b55115be9b4fb81377bae13b6567ff",
      "transactionType": "CALL",
      "contractName": "Attacker",
      "contractAddress": "0x3287bce49fbaf4778f200176be11daf090b6a1fd",
      "function": "attack(string)",
      "arguments": [
        "YourName"
      ],
      "transaction": {
        "from": "0xce7e5bd5f20044368f6060f7c050e93a1fc80562",
        "to": "0x3287bce49fbaf4778f200176be11daf090b6a1fd",
        "gas": "0x26bd7",
        "value": "0x0",
        "input": "0xaabb755400000000000000000000000000000000000000000000000000000000000000200000000000000000000000000000000000000000000000000000000000000008596f75724e616d65000000000000000000000000000000000000000000000000",
        "nonce": "0x27",
        "chainId": "0xaa36a7"
      },
      "additionalContracts": [],
      "isFixedGasLimit": false
    }
  ],
  "receipts": [
    {
      "status": "0x1",
      "cumulativeGasUsed": "0xcf373f",
      "logs": [],
      "logsBloom": "0x00000000000000000000000000000000000000000000000000000000000000000000000000000000000000000000000000000000000000000000000000000000000000000000000000000000000000000000000000000000000000000000000000000000000000000000000000000000000000000000000000000000000000000000000000000000000000000000000000000000000000000000000000000000000000000000000000000000000000000000000000000000000000000000000000000000000000000000000000000000000000000000000000000000000000000000000000000000000000000000000000000000000000000000000000000000",
      "type": "0x2",
      "transactionHash": "0xd63b3974c46896c86fd05a98ddb345e231dc8e6011c1925dc19cc7e0b254ffbb",
      "transactionIndex": "0x4a",
      "blockHash": "0x39cf613c1fe858c1c02c19fde9de5190e59eff9d46b93eeb9c3575da1e2b6381",
      "blockNumber": "0x69f488",
      "gasUsed": "0x42665",
      "effectiveGasPrice": "0x174aa765",
      "from": "0xce7e5bd5f20044368f6060f7c050e93a1fc80562",
      "to": null,
      "contractAddress": "0x3287bce49fbaf4778f200176be11daf090b6a1fd"
    },
    {
      "status": "0x1",
      "cumulativeGasUsed": "0xd0df12",
      "logs": [],
      "logsBloom": "0x00000000000000000000000000000000000000000000000000000000000000000000000000000000000000000000000000000000000000000000000000000000000000000000000000000000000000000000000000000000000000000000000000000000000000000000000000000000000000000000000000000000000000000000000000000000000000000000000000000000000000000000000000000000000000000000000000000000000000000000000000000000000000000000000000000000000000000000000000000000000000000000000000000000000000000000000000000000000000000000000000000000000000000000000000000000",
      "type": "0x2",
      "transactionHash": "0xf0580b29c94a884a4cc3885961b7d72030b55115be9b4fb81377bae13b6567ff",
      "transactionIndex": "0x4b",
      "blockHash": "0x39cf613c1fe858c1c02c19fde9de5190e59eff9d46b93eeb9c3575da1e2b6381",
      "blockNumber": "0x69f488",
      "gasUsed": "0x1a7d3",
      "effectiveGasPrice": "0x174aa765",
      "from": "0xce7e5bd5f20044368f6060f7c050e93a1fc80562",
      "to": "0x3287bce49fbaf4778f200176be11daf090b6a1fd",
      "contractAddress": null
    }
  ],
  "libraries": [],
  "pending": [],
  "returns": {},
  "timestamp": 1729875170,
  "chain": 11155111,
  "commit": "c266df2"
}